:100000000C943A000C9457000C9457000C94570031
:100010000C9457000C9457000C9457000C94570004
:100020000C9457000C9457000C9457000C945700F4
:100030000C9457000C9457000C9457000C945700E4
:100040000C9457000C9457000C9457000C945700D4
:100050000C9457000C9457000C9457000C945700C4
:100060000C9457000C9457000C9457000C945700B4
:100070000C94570011241FBECFEFD4E0DEBFCDBFDC
:1000800012E0A0E0B1E0ECEAF2E102C005900D92CE
:10009000AC31B107D9F722E0ACE1B2E001C01D926A
:1000A000A333B207E1F70E9420080C9454090C9482
:1000B00000000F931F93CF93DF93EC018B0140E07F
:1000C0006A8188810E94AB03FE0180E090E0D80144
:1000D0002D913C91119721503109821793077CF49F
:1000E00026813781318320832085318533832283A4
:1000F000228533853583248301963696E8CF66E0E2
:1001000070E00E94DF08C80FD91F198218821B8275
:100110001A821D821C828D919C91119701978D935B
:100120009C93DF91CF911F910F9108950F931F938F
:10013000CF93DF93EC018B018A819B8186309105FF
:1001400031F48C819D81892BC1F488810CC0019789
:10015000A1F48C819D81019781F488819981841714
:10016000950719F085E00E944902B801CE01DF91A0
:10017000CF911F910F910C945900DF91CF911F9156
:100180000F910895EF92FF920F931F93CF93DF93F8
:100190007B01EC0100E010E0F701808191810817FC
:1001A0001907B4F441E06A8188810E94AB032C8175
:1001B0003D818A81232B11F061E001C06FEF680F50
:1001C00040E088810E94AB030F5F1F4F2696E4CF6B
:1001D000DF91CF911F910F91FF90EF900895CF92F3
:1001E000DF92EF92FF920F931F93CF93DF937C01E7
:1001F0006B01DA01F9018081918166E070E00E9473
:10020000DF088A0F9B1FEC01F982E88280819181CF
:1002100066E070E00E94DF088A0F9B1FEC01DB8222
:10022000CA828081918166E070E00E94DF088A0FB7
:100230009B1FEC011D830C8380819181019691832A
:100240008083B901CD01DF91CF911F910F91FF9074
:10025000EF90DF90CF900C94C2000F931F93CF9339
:10026000DF93D82FC92F8B010E949600ED2FFC2F12
:1002700080E090E0D8012D913C918217930784F49F
:100280004481558122813381452B19F02150310958
:1002900002C02F5F3F4F3383228301963696EACF09
:1002A000B8018D2F9C2FDF91CF911F910F910C944E
:1002B000C2000F931F93CF93DF93EC018B010E9439
:1002C000BE0481E00E948C04882369F088819981B2
:1002D0008430910544F440E061E00E94AB038881E2
:1002E0009981019611C083E00E948C04882379F0E3
:1002F000888199811816190654F440E061E00E9443
:10030000AB03888199810197998388830AC084E02F
:100310000E948C04882329F081E090E0F801918309
:10032000808341E061E088810E94AB03DF91CF913F
:100330001F910F910C94D50383309105B1F034F4E3
:1003400081309105E1F00297A9F00895843091057C
:1003500039F00597C9F441E060E084E00E94AB0306
:1003600041E060E083E00E94AB0341E060E082E0B6
:100370000E94AB0341E060E081E00E94AB0341E0FA
:1003800060E080E00C94AB030895CF92DF92EF928F
:10039000FF920F931F93CF93DF936C017B01EA01D0
:1003A00089010E943F02882309F10E944102E82F3F
:1003B000880FFF0BE530F10548F481E090E0D601AD
:1003C0008D939C93D701ED93FC9310C0E530F1051C
:1003D00031F48881998101969983888307C0369783
:1003E00029F481E090E0F80191838083DF91CF913F
:1003F0001F910F91FF90EF90DF90CF900895069797
:1004000019F485ED91E002C08BEE91E00E94700737
:100410000E949F050E949407FBCF80E092E00E941B
:10042000700784E00E948C04811107C00E949F0520
:100430000E9494070E94BE04F4CF08950E94AE0269
:100440000E94F1030E943B058AEF90E00E948A051A
:100450000E945B0288EE93E00E9410080E94D50380
:1004600082E391E00E948F0781E090E00E948A077A
:1004700084E60E947F0781E090E00C9485070C944D
:1004800077030C9498030C947D030C9483030C94D1
:1004900089030E9489030E9483038823E1F38CE28D
:1004A00091E00197F1F70E94770381110C944102CA
:1004B00008950C949F03CF93DF9300D01F92CDB784
:1004C000DEB780ED90E09A83898388E08B83509A31
:1004D000589A0E944A038FE690E00E94E10281E070
:1004E00090E00E94390361E070E081E090E00E94BA
:1004F00025030E941103CE0101960E945F030F9015
:100500000F900F90DF91CF910895CF93DF93DC018F
:10051000562FFB0160E070E0C1E0D0E08E2F851B1C
:100520008417B8F49191BE01092E02C0660F771F9F
:100530000A94E2F76F5F7F4F769567956A0F7B1F8E
:1005400002C0769567959A95E2F76F3F710509F0BD
:1005500028F7F9016083DF91CF910895E1E6F0E09B
:1005600080E880831082A89584B7877F84BFE0E607
:10057000F0E080818861808310820895109280006D
:1005800084E0809381001092850010928400089589
:1005900080918400909185000895AC018091840041
:1005A000909185009C01241B350B283E3340B0F709
:1005B00008952091840030918500820F931F0C9440
:1005C000CD02CF93DF931F92CDB7DEB79E012F5F91
:1005D0003F4F45E06EEA71E00E94850291E0980F7E
:1005E000909300019981915097BD18BC95B5977073
:1005F00039F095B5209100012770987F922B95BD19
:10060000298130E0E82FF0E0E255FE4FC90100807B
:1006100002C0880F991F0A94E2F70F90DF91CF91E3
:10062000089585B3897F85BB85B59091000197704A
:10063000887F892B85BD089585B5887F85BD089500
:1006400085B382FB882780F90895009719F00197F8
:1006500041F0089584B56295660F660F607C8F73D4
:1006600005C084B563706295607F8F7C682B64BD24
:100670000895009741F0019759F484B58E7F84BDA9
:1006800084B5826002C084B58C7F84BD81E008950A
:1006900080E0089514BC15BC16BC18BC84B58E7FD0
:1006A00084BD84B5826084BD81E008959C012150A1
:1006B00031093093CD0081508093CC000895CF93C1
:1006C000DF93EC01888199810E9456038A819BEF18
:1006D000980F943008F088E098E19093C900855015
:1006E000880F8093CA0081E0DF91CF9108958091B7
:1006F000C800881F8827881F08958091C80085FB3F
:10070000882780F908958091C80086FB882780F9A2
:100710000895CF93C82F0E947D038823E1F3909121
:10072000C80090649093C800C093CE00CF91089504
:100730008091C80087FFFCCF8091CE000895CF93B1
:10074000DF93EC018991882319F00E948903FACF85
:10075000DF91CF910895853098F4673088F421E0D7
:1007600030E001C0220F6A95EAF7E82FF0E0E35E7F
:10077000FD4F922F9095808189234111822B808398
:100780000895853080F4673070F4E82FF0E0E35E80
:10079000FD4F81E090E001C0880F6A95EAF79081F3
:1007A000982381E009F480E0089560911C02E62F0F
:1007B000F0E0E35EFD4F80810E94230480911C02E3
:1007C0008F5F853018F480931C02089510921C02EC
:1007D0000895EDE1F2E010821182128213821482F8
:1007E00008950E9401040C94E9039C01FC01FF2779
:1007F00084A1832B84A395A1892F832B85A381E0DA
:100800000895CF93DF93CDEBD1E0899199910E9428
:10081000F50381E0CB3CD807C1F783E090E40E9468
:10082000F50380E090E80E94F50383E090E10E94E8
:10083000F50383E090E80E94F50383E090E2DF9106
:10084000CF910C94F503E0912202F0E0EE0FFF1F30
:10085000ED54FE4F20813181F901FF2795A1932BA3
:1008600095A3EDEBF1E097E020813181D901BB2721
:1008700095962C91959780FF03C03095232301C056
:10088000232B95962C938695915032969111ECCF0F
:10089000E62FF0E0EE0FFF1FED54FE4F80819181B7
:1008A000FC01FF2785A19095892385A360932202EF
:1008B00008956230710511F168F46130710551F5E8
:1008C000FC01FF2724A1892F8095922F982394A3C0
:1008D00095A112C06330710541F064307105D1F407
:1008E000FC01FF2784A1892B0FC0FC01FF2784A1F5
:1008F000892B84A385A19095892309C0FC01FF273A
:1009000024A1892F8095822384A385A1892B85A387
:1009100081E0089580E00895E82FF0E0EE0FFF1FDA
:10092000ED5DFD4F8081882321F0918181E0892751
:1009300002C080E090E081700895E82FF0E0EE0FB3
:10094000FF1FED5DFD4F8081811102C0818102C0DA
:1009500080E090E081700895E82FF0E0EE0FFF1F37
:10096000ED5DFD4F80810895E82FF0E0EE0FFF1F51
:10097000ED5DFD4F908181E0892708956F927F9210
:100980008F929F92AF92BF92CF92DF92EF92FF929F
:100990000F931F93CF93DF9300D0CDB7DEB723E241
:1009A000622E22E0722E3BECC32E31E0D32E812C3E
:1009B00046E0942EF30180818183F601019111912B
:1009C0006F015801BB24F50184A1E12EFF2425A16C
:1009D00030E02E213F2141E0232B09F440E090E05C
:1009E0008E219F21892B29F0411108C023E030E09E
:1009F0000AC0411106C021E030E005C024E030E02B
:100A000002C022E030E064E070E0C80129833A834C
:100A10000E94590462E070E0C8010E945904892DC7
:100A20008A95F1F7F50183A190E0E822F92281E0AF
:100A300029813A81EF2809F080E0F3018083B90130
:100A4000C8010E9459048394F2E06F0E711C85E086
:100A50008812B0CF0F900F90DF91CF911F910F911F
:100A6000FF90EF90DF90CF90BF90AF909F908F90CE
:100A70007F906F9008950895009789F0FC0123817D
:100A8000621B67FD09C0062E000C770B248130E045
:100A900081E0621773070CF080E08170089580E0B8
:100AA0000895CF93DF93FC01A62F822F309771F129
:100AB0006181461758F59281291740F59381A91B4A
:100AC000A7FD24C00A2E000CBB0BC481D0E0AC17DC
:100AD000BD07E4F40E94D608480F658170E0CD019F
:100AE0000E94DF080696242F269526952695E80F66
:100AF000F91FE20FF11D9081892F90E0477002C02D
:100B0000959587954A95E2F7817001C080E0DF9165
:100B1000CF910895CF93DF93EC010E94BE029E0116
:100B200040E050E062E17AE780E090E00E94040952
:100B30003093300220932F02DF91CF91089580915E
:100B40002D0290912E020E94CD0220912D02309113
:100B50002E0280912F0290913002820F931F90936A
:100B60002E0280932D02089541E0611101C040E002
:100B7000692F0C94AB03692F0C94C10341E0611100
:100B800001C040E0692F0C94AB034F925F926F92CB
:100B90007F928F929F92AF92BF92CF92DF92EF920D
:100BA000FF920F931F93CF93DF931F92CDB7DEB7C2
:100BB000862E942E5C01E62EF72E262F660F330B21
:100BC000281B310987FD3395072F072E000C110BC9
:100BD000091B110997FD139537FF03C077247A94F9
:100BE00002C07724739417FF03C066246A9402C07E
:100BF00066246394290137FF03C05194419451083E
:100C000017FF03C011950195110940165106A4F074
:100C10006201D594C794F92EA81421F1692D8A2D6B
:100C20009F2D0E94BE05C01AD10AD7FE03C0C40C76
:100C3000D51CF60CA70CF0CF6801D594C794E82E0C
:100C4000B71681F0692D8E2D9B2D79830E94BE05EC
:100C5000C418D5087981D7FE03C0C00ED11EE70C99
:100C6000B60CEECF692DC7010F90DF91CF911F9188
:100C70000F91FF90EF90DF90CF90BF90AF909F903B
:100C80008F907F906F905F904F900C94BE05FF9275
:100C90000F931F93CF93DF93D82FF92E162FC72FC3
:100CA000042F792F0E94C505402F6D2F7C2F8D2F8B
:100CB0009F2D0E94C505402F612F7C2F812F9F2DD6
:100CC0000E94C505402F612F7C2F8D2F9C2F0E94E5
:100CD000C505DF91CF911F910F91FF9008950E945C
:100CE000E903E1E0F1E0118A14860895DF92EF92C2
:100CF000FF920F931F93CF93DF93D82E7B01162F74
:100D00000F2D8091030190910401C0E00197A1F59E
:100D10000F2D0C1BE0910901F0910A018181C81788
:100D2000C0F4D0E08091090190910A01FC01228178
:100D3000D21768F42D2F4C2F6D2D0E945105682F6E
:100D40008D2F8E0D902F0E94BE05DF5FEBCFCF5F02
:100D5000DFCFC0E0E0910901F0910A018281C8175C
:100D600040F460E08C2F8E0D902F0E94BE05CF5F67
:100D7000F1CF015031C0CF5F1C2F1E0DE091090152
:100D8000F0910A018181C817B0F4D0E08091090187
:100D900090910A01FC012281D21768F72D2F4C2F68
:100DA0006D2D0E945105682F812F9D2F9F0D0E9450
:100DB000BE05DF5FEBCFC0E0E0910901F0910A01D1
:100DC0008281C81740F460E0812F9C2F9F0D0E9404
:100DD000BE05CF5FF1CF1F5F812F902FDF91CF91A5
:100DE0001F910F91FF90EF90DF9008951F93CF9385
:100DF000DF93182FEC018C2F811B9991992351F0CF
:100E0000892F0E947606BC018C2F811B653014F45B
:100E100077FFF1CFDF91CF911F9108950F931F932B
:100E2000CF93DF93EC019B0110920D0140930E01D3
:100E3000109211010091090110910A01011511058B
:100E400009F449C0F801818160910701709108019E
:100E500090E00E94DF08BC0180910B0190910C0191
:100E60000E94F008CB016AE070E00E94DF089093D6
:100E7000100180930F01309306012093050140E299
:100E800050E0BE0182E191E00E944509809101019C
:100E9000909102010197F9F4FE0101900020E9F719
:100EA000CF010197F8019181692F70E06F5F7F4F4B
:100EB0008C1B0E94D60881502091030130910401BF
:100EC0002130310511F095E001C097E0981718F432
:100ED0008EEF80931101DF91CF911F910F910895B3
:100EE00020910301309104012130310511F070E0AF
:100EF00001C076E04FEF60E00E940E07089590E099
:100F000090930801809307010895909302018093C4
:100F10000101089590930401809303010895909333
:100F20000A01809309010895809131029091320263
:100F30000196909332028093310220910F013091FB
:100F400010018217930708F469C0109232021092C0
:100F50003102E0910D01F0E0EF5FFE4F81898111D8
:100F60000AC080910E01823008F458C081508093ED
:100F70000E0110920D0180910D0190E0FC01EF5FD8
:100F8000FE4F2189222309F449C04091010150916B
:100F90000201209111014115510521F04130510507
:100FA00099F024C0211122C06091050170910601C1
:100FB0008E5E9E4F0E94F60690E0019790910D0183
:100FC000890F80930D0112C0609105017091060197
:100FD00040910301509104014130510511F4720F09
:100FE00001C0621B8E5E9E4F0E94F6068091110129
:100FF0008F5F80931101082E000C990BE09109017D
:10100000F0910A01218130E0281739073CF4109251
:10101000110180910D018F5F80930D010C94D50318
:10102000CF93DF93C1E0D1E09B878A870E94F103D1
:1010300084E190E09F838E83DF91CF910C946F06C3
:10104000CF93DF93CDB7DEB7CA54D1090FB6F8946A
:10105000DEBF0FBECDBF0E941E022B961FAE1EAE7E
:101060002B9729961FAE1EAE299727961FAE1EAE50
:10107000279725961FAE1EAE259782E090E0239617
:101080009FAF8EAF239721961FAE1EAE2197CE0144
:1010900001967C018CE3F70111928A95E9F71EAE67
:1010A0001DAE0E940D020E94E90300E010E02196AF
:1010B0008EAD9FAD2197892B09F070C00E949F05CE
:1010C00000351105E1F523964EAD5FAD2397BE01C6
:1010D000635C7F4FC7010E942D0129968EAD9FADA5
:1010E0002997892B91F000E010E09E01235C3F4F8F
:1010F000A70162E070E023968EAD9FAD23970E941A
:10110000EF0029961FAE1EAE299727968EAD9FAD94
:101110002797892B91F001E010E09E01235C3F4F5F
:10112000A70166E070E025968EAD9FAD25970E94E1
:10113000EF0027961FAE1EAE279700E010E09E013D
:10114000215C3F4FAE01475B5F4FBE016D5B7F4F40
:10115000CE018B5B9F4F0E94C5012B968EAD9FAD3C
:101160002B970E949C01BE01695B7F4FCE018F5B74
:101170009F4F0E9459010F5F1F4F2B968EAD9FAD61
:101180002B9706970CF493CF81E090E021969FAFC8
:101190008EAF219786E00E94490289CF0E94E90321
:1011A0002B968EAD9FAD2B970E94FF01002480FDF2
:1011B000060E660F11F08695D1F7802D0895002454
:1011C000552704C0080E591F880F991F009729F052
:1011D00076956795B8F37105B9F7802D952F089529
:1011E000AA1BBB1B51E107C0AA1FBB1FA617B7074D
:1011F00010F0A61BB70B881F991F5A95A9F7809569
:101200009095BC01CD010895052E97FB1EF4009426
:101210000E941B0957FD07D00E94230907FC03D039
:101220004EF40C941B0950954095309521953F4FF5
:101230004F4F5F4F089590958095709561957F4FC2
:101240008F4F9F4F0895A1E21A2EAA1BBB1BFD01D1
:101250000DC0AA1FBB1FEE1FFF1FA217B307E40795
:10126000F50720F0A21BB30BE40BF50B661F771FED
:10127000881F991F1A9469F76095709580959095CD
:101280009B01AC01BD01CF010895FB01DC01415080
:10129000504048F001900D920020C9F701C01D9206
:0C12A00041505040E0F70895F894FFCF53
:1012AC00010000000000001400000000000000001D
:1012BC000000000000000000000000000000000022
:1012CC000000000000000000000000000000000012
:1012DC000000010305203B0200009220EB737D5FB0
:1012EC00DE3DA552EA7A14004A222229BA2ED005F4
:1012FC000014C0010020A4126A2B9A74A372A338A4
:10130C00ED498F38CE2AA712AA2AAE491004101420
:10131C005444380E11152A250000EA5BEB3A4F7243
:10132C006B3BCF73CF134F7AED5B9774247B5D5679
:10133C004972FD5B6F5B6F7BEF136F7FEF57CE389E
:10134C0097246D7B6D2BED5FAD5AAD24A772000316
:10135C0006080A03400080031003800320004000AD
:10136C002000100008000400020001038003400369
:10137C00200080031047414D45204F5645522120F7
:10138C002057494E4E4552213A290047414D4520A0
:10139C004F5645522120204C4F534552213A28009C
:1013AC002D2D57454C434F4D4520544F2031563130
:0C13BC0020464F4F5442414C4C2D2D0058
:00000001FF
